{
  "contractName": "NewNote",
  "abi": [
    {
      "constant": true,
      "inputs": [
        {
          "internalType": "string",
          "name": "",
          "type": "string"
        }
      ],
      "name": "users",
      "outputs": [
        {
          "internalType": "string",
          "name": "name",
          "type": "string"
        },
        {
          "internalType": "string",
          "name": "number",
          "type": "string"
        },
        {
          "internalType": "address",
          "name": "userAddress",
          "type": "address"
        }
      ],
      "payable": false,
      "stateMutability": "view",
      "type": "function"
    },
    {
      "constant": false,
      "inputs": [
        {
          "internalType": "string",
          "name": "name",
          "type": "string"
        },
        {
          "internalType": "string",
          "name": "number",
          "type": "string"
        },
        {
          "internalType": "address",
          "name": "userAddress",
          "type": "address"
        }
      ],
      "name": "setUser",
      "outputs": [],
      "payable": false,
      "stateMutability": "nonpayable",
      "type": "function"
    },
    {
      "constant": true,
      "inputs": [
        {
          "internalType": "string",
          "name": "name",
          "type": "string"
        }
      ],
      "name": "getUser",
      "outputs": [
        {
          "components": [
            {
              "internalType": "string",
              "name": "name",
              "type": "string"
            },
            {
              "internalType": "string",
              "name": "number",
              "type": "string"
            },
            {
              "internalType": "address",
              "name": "userAddress",
              "type": "address"
            }
          ],
          "internalType": "struct NewNote.user",
          "name": "",
          "type": "tuple"
        }
      ],
      "payable": false,
      "stateMutability": "view",
      "type": "function"
    }
  ],
  "bytecode": "0x608060405234801561001057600080fd5b50610ad5806100206000396000f3fe608060405234801561001057600080fd5b50600436106100415760003560e01c806331feb671146100465780635566d7e814610076578063689e1c0314610092575b600080fd5b610060600480360361005b91908101906106d8565b6100c4565b60405161006d919061090c565b60405180910390f35b610090600480360361008b9190810190610719565b610296565b005b6100ac60048036036100a79190810190610697565b61036e565b6040516100bb939291906108c7565b60405180910390f35b6100cc6104fe565b6000826040516100dc91906108b0565b9081526020016040518091039020604051806060016040529081600082018054600181600116156101000203166002900480601f01602080910402602001604051908101604052809291908181526020018280546001816001161561010002031660029004801561018e5780601f106101635761010080835404028352916020019161018e565b820191906000526020600020905b81548152906001019060200180831161017157829003601f168201915b50505050508152602001600182018054600181600116156101000203166002900480601f0160208091040260200160405190810160405280929190818152602001828054600181600116156101000203166002900480156102305780601f1061020557610100808354040283529160200191610230565b820191906000526020600020905b81548152906001019060200180831161021357829003601f168201915b505050505081526020016002820160009054906101000a900473ffffffffffffffffffffffffffffffffffffffff1673ffffffffffffffffffffffffffffffffffffffff1673ffffffffffffffffffffffffffffffffffffffff16815250509050919050565b60405180606001604052808481526020018381526020018273ffffffffffffffffffffffffffffffffffffffff168152506000846040516102d791906108b0565b90815260200160405180910390206000820151816000019080519060200190610301929190610535565b50602082015181600101908051906020019061031e929190610535565b5060408201518160020160006101000a81548173ffffffffffffffffffffffffffffffffffffffff021916908373ffffffffffffffffffffffffffffffffffffffff160217905550905050505050565b600081805160208101820180518482526020830160208501208183528095505050505050600091509050806000018054600181600116156101000203166002900480601f0160208091040260200160405190810160405280929190818152602001828054600181600116156101000203166002900480156104305780601f1061040557610100808354040283529160200191610430565b820191906000526020600020905b81548152906001019060200180831161041357829003601f168201915b505050505090806001018054600181600116156101000203166002900480601f0160208091040260200160405190810160405280929190818152602001828054600181600116156101000203166002900480156104ce5780601f106104a3576101008083540402835291602001916104ce565b820191906000526020600020905b8154815290600101906020018083116104b157829003601f168201915b5050505050908060020160009054906101000a900473ffffffffffffffffffffffffffffffffffffffff16905083565b60405180606001604052806060815260200160608152602001600073ffffffffffffffffffffffffffffffffffffffff1681525090565b828054600181600116156101000203166002900490600052602060002090601f016020900481019282601f1061057657805160ff19168380011785556105a4565b828001600101855582156105a4579182015b828111156105a3578251825591602001919060010190610588565b5b5090506105b191906105b5565b5090565b6105d791905b808211156105d35760008160009055506001016105bb565b5090565b90565b6000813590506105e981610a7b565b92915050565b600082601f83011261060057600080fd5b813561061361060e8261095b565b61092e565b9150808252602083016020830185838301111561062f57600080fd5b61063a838284610a28565b50505092915050565b600082601f83011261065457600080fd5b813561066761066282610987565b61092e565b9150808252602083016020830185838301111561068357600080fd5b61068e838284610a28565b50505092915050565b6000602082840312156106a957600080fd5b600082013567ffffffffffffffff8111156106c357600080fd5b6106cf848285016105ef565b91505092915050565b6000602082840312156106ea57600080fd5b600082013567ffffffffffffffff81111561070457600080fd5b61071084828501610643565b91505092915050565b60008060006060848603121561072e57600080fd5b600084013567ffffffffffffffff81111561074857600080fd5b61075486828701610643565b935050602084013567ffffffffffffffff81111561077157600080fd5b61077d86828701610643565b925050604061078e868287016105da565b9150509250925092565b6107a1816109f6565b82525050565b6107b0816109f6565b82525050565b60006107c1826109be565b6107cb81856109eb565b93506107db818560208601610a37565b80840191505092915050565b60006107f2826109b3565b6107fc81856109c9565b935061080c818560208601610a37565b61081581610a6a565b840191505092915050565b600061082b826109b3565b61083581856109da565b9350610845818560208601610a37565b61084e81610a6a565b840191505092915050565b6000606083016000830151848203600086015261087682826107e7565b9150506020830151848203602086015261089082826107e7565b91505060408301516108a56040860182610798565b508091505092915050565b60006108bc82846107b6565b915081905092915050565b600060608201905081810360008301526108e18186610820565b905081810360208301526108f58185610820565b905061090460408301846107a7565b949350505050565b600060208201905081810360008301526109268184610859565b905092915050565b6000604051905081810181811067ffffffffffffffff8211171561095157600080fd5b8060405250919050565b600067ffffffffffffffff82111561097257600080fd5b601f19601f8301169050602081019050919050565b600067ffffffffffffffff82111561099e57600080fd5b601f19601f8301169050602081019050919050565b600081519050919050565b600081519050919050565b600082825260208201905092915050565b600082825260208201905092915050565b600081905092915050565b6000610a0182610a08565b9050919050565b600073ffffffffffffffffffffffffffffffffffffffff82169050919050565b82818337600083830152505050565b60005b83811015610a55578082015181840152602081019050610a3a565b83811115610a64576000848401525b50505050565b6000601f19601f8301169050919050565b610a84816109f6565b8114610a8f57600080fd5b5056fea365627a7a723158205c0e535cfdbe6b43ee24f3a70b8a68f205fc91ebd5e864958496cc70ffdecdd26c6578706572696d656e74616cf564736f6c63430005100040",
  "source": "// SPDX-License-Identifier: MIT\r\npragma solidity >=0.4.22 <0.9.0;\r\n\r\npragma experimental ABIEncoderV2;\r\n\r\ncontract NewNote {\r\n    struct user {\r\n        string name;\r\n        string number;\r\n        address userAddress;\r\n    }\r\n    mapping(string => user) public users;\r\n\r\n    function setUser(string memory name, string memory number, address userAddress) public {\r\n        users[name] = user(name,number,userAddress);\r\n    }\r\n\r\n    function getUser(string memory name) public view returns(user memory) {\r\n        return users[name];\r\n    }\r\n}\r\n",
  "sourcePath": "C:\\Users\\egoru\\WebstormProjects\\ethereum-newnote-dapp\\contracts\\NewNote.sol",
  "compiler": {
    "name": "solc",
    "version": "0.5.16+commit.9c3226ce.Emscripten.clang"
  },
  "schemaVersion": "3.4.16",
  "updatedAt": "2024-05-02T17:34:22.589Z",
  "networkType": "ethereum",
  "devdoc": {
    "methods": {}
  },
  "userdoc": {
    "methods": {}
  }
}